{
	"data": {
		"bytecode": {
			"linkReferences": {},
			"object": "6080604052600280546001600160a01b03191673ab594600376ec9fd91f8e885dadf0ce036862de017905534801561003657600080fd5b50600080546001600160a01b031916339081178255604051909182917f8be0079c531659141344cd1fd0a4f28419497f9722a3daafe3b4186f6b6457e0908290a350600180546001600160a01b031916339081179091556040516000907f74da04524d50c64947f5dd5381ef1a4dca5cba8ed1d816243f9e48aa0b5617ed908290a3610829806100c76000396000f3fe608060405234801561001057600080fd5b50600436106100935760003560e01c80637eeda703116100665780637eeda703146100fd5780638da5cb5b14610113578063b21fece714610124578063f2fde38b14610137578063ffda0d621461014a57600080fd5b806329605e77146100985780634456eda2146100ad578063570ca735146100d0578063715018a6146100f5575b600080fd5b6100ab6100a63660046105e4565b61015d565b005b6001546001600160a01b0316331460405190151581526020015b60405180910390f35b6001546001600160a01b03165b6040516001600160a01b0390911681526020016100c7565b6100ab61019c565b610105610210565b6040519081526020016100c7565b6000546001600160a01b03166100dd565b6002546100dd906001600160a01b031681565b6100ab6101453660046105e4565b610335565b6100ab6101583660046105e4565b61041f565b6000546001600160a01b031633146101905760405162461bcd60e51b81526004016101879061067b565b60405180910390fd5b610199816104a7565b50565b6000546001600160a01b031633146101c65760405162461bcd60e51b81526004016101879061067b565b600080546040516001600160a01b03909116907f8be0079c531659141344cd1fd0a4f28419497f9722a3daafe3b4186f6b6457e0908390a3600080546001600160a01b0319169055565b60025460408051633fabe5a360e21b815290516000926001600160a01b0316918391839163feaf968c9160048083019260a0929190829003018186803b15801561025957600080fd5b505afa15801561026d573d6000803e3d6000fd5b505050506040513d601f19601f82011682018060405250810190610291919061060b565b5050509150506000826001600160a01b031663313ce5676040518163ffffffff1660e01b815260040160206040518083038186803b1580156102d257600080fd5b505afa1580156102e6573d6000803e3d6000fd5b505050506040513d601f19601f8201168201806040525081019061030a919061065a565b905061032d61031a82600a610713565b61032784620f424061056b565b906105b2565b935050505090565b6000546001600160a01b0316331461035f5760405162461bcd60e51b81526004016101879061067b565b6001600160a01b0381166103c45760405162461bcd60e51b815260206004820152602660248201527f4f776e61626c653a206e6577206f776e657220697320746865207a65726f206160448201526564647265737360d01b6064820152608401610187565b600080546040516001600160a01b03808516939216917f8be0079c531659141344cd1fd0a4f28419497f9722a3daafe3b4186f6b6457e091a3600080546001600160a01b0319166001600160a01b0392909216919091179055565b6001546001600160a01b031633146104855760405162461bcd60e51b8152602060048201526024808201527f6f70657261746f723a2063616c6c6572206973206e6f7420746865206f70657260448201526330ba37b960e11b6064820152608401610187565b600280546001600160a01b0319166001600160a01b0392909216919091179055565b6001600160a01b0381166105135760405162461bcd60e51b815260206004820152602d60248201527f6f70657261746f723a207a65726f206164647265737320676976656e20666f7260448201526c103732bb9037b832b930ba37b960991b6064820152608401610187565b6040516001600160a01b038216906000907f74da04524d50c64947f5dd5381ef1a4dca5cba8ed1d816243f9e48aa0b5617ed908290a3600180546001600160a01b0319166001600160a01b0392909216919091179055565b60008261057a575060006105ac565b61058482846107be565b90508161059184836106b0565b146105ac57634e487b7160e01b600052600160045260246000fd5b92915050565b60006105be82846106b0565b9392505050565b805169ffffffffffffffffffff811681146105df57600080fd5b919050565b6000602082840312156105f5578081fd5b81356001600160a01b03811681146105be578182fd5b600080600080600060a08688031215610622578081fd5b61062b866105c5565b945060208601519350604086015192506060860151915061064e608087016105c5565b90509295509295909350565b60006020828403121561066b578081fd5b815160ff811681146105be578182fd5b6020808252818101527f4f776e61626c653a2063616c6c6572206973206e6f7420746865206f776e6572604082015260600190565b6000826106cb57634e487b7160e01b81526012600452602481fd5b500490565b600181815b8085111561070b5781600019048211156106f1576106f16107dd565b808516156106fe57918102915b93841c93908002906106d5565b509250929050565b60006105be60ff84168360008261072c575060016105ac565b81610739575060006105ac565b816001811461074f576002811461075957610775565b60019150506105ac565b60ff84111561076a5761076a6107dd565b50506001821b6105ac565b5060208310610133831016604e8410600b8410161715610798575081810a6105ac565b6107a283836106d0565b80600019048211156107b6576107b66107dd565b029392505050565b60008160001904831182151516156107d8576107d86107dd565b500290565b634e487b7160e01b600052601160045260246000fdfea264697066735822122019e6823582ddb0362b500011627d88dadba4dc306a15496788fcd129a34105ce64736f6c63430008040033",
			"opcodes": "PUSH1 0x80 PUSH1 0x40 MSTORE PUSH1 0x2 DUP1 SLOAD PUSH1 0x1 PUSH1 0x1 PUSH1 0xA0 SHL SUB NOT AND PUSH20 0xAB594600376EC9FD91F8E885DADF0CE036862DE0 OR SWAP1 SSTORE CALLVALUE DUP1 ISZERO PUSH2 0x36 JUMPI PUSH1 0x0 DUP1 REVERT JUMPDEST POP PUSH1 0x0 DUP1 SLOAD PUSH1 0x1 PUSH1 0x1 PUSH1 0xA0 SHL SUB NOT AND CALLER SWAP1 DUP2 OR DUP3 SSTORE PUSH1 0x40 MLOAD SWAP1 SWAP2 DUP3 SWAP2 PUSH32 0x8BE0079C531659141344CD1FD0A4F28419497F9722A3DAAFE3B4186F6B6457E0 SWAP1 DUP3 SWAP1 LOG3 POP PUSH1 0x1 DUP1 SLOAD PUSH1 0x1 PUSH1 0x1 PUSH1 0xA0 SHL SUB NOT AND CALLER SWAP1 DUP2 OR SWAP1 SWAP2 SSTORE PUSH1 0x40 MLOAD PUSH1 0x0 SWAP1 PUSH32 0x74DA04524D50C64947F5DD5381EF1A4DCA5CBA8ED1D816243F9E48AA0B5617ED SWAP1 DUP3 SWAP1 LOG3 PUSH2 0x829 DUP1 PUSH2 0xC7 PUSH1 0x0 CODECOPY PUSH1 0x0 RETURN INVALID PUSH1 0x80 PUSH1 0x40 MSTORE CALLVALUE DUP1 ISZERO PUSH2 0x10 JUMPI PUSH1 0x0 DUP1 REVERT JUMPDEST POP PUSH1 0x4 CALLDATASIZE LT PUSH2 0x93 JUMPI PUSH1 0x0 CALLDATALOAD PUSH1 0xE0 SHR DUP1 PUSH4 0x7EEDA703 GT PUSH2 0x66 JUMPI DUP1 PUSH4 0x7EEDA703 EQ PUSH2 0xFD JUMPI DUP1 PUSH4 0x8DA5CB5B EQ PUSH2 0x113 JUMPI DUP1 PUSH4 0xB21FECE7 EQ PUSH2 0x124 JUMPI DUP1 PUSH4 0xF2FDE38B EQ PUSH2 0x137 JUMPI DUP1 PUSH4 0xFFDA0D62 EQ PUSH2 0x14A JUMPI PUSH1 0x0 DUP1 REVERT JUMPDEST DUP1 PUSH4 0x29605E77 EQ PUSH2 0x98 JUMPI DUP1 PUSH4 0x4456EDA2 EQ PUSH2 0xAD JUMPI DUP1 PUSH4 0x570CA735 EQ PUSH2 0xD0 JUMPI DUP1 PUSH4 0x715018A6 EQ PUSH2 0xF5 JUMPI JUMPDEST PUSH1 0x0 DUP1 REVERT JUMPDEST PUSH2 0xAB PUSH2 0xA6 CALLDATASIZE PUSH1 0x4 PUSH2 0x5E4 JUMP JUMPDEST PUSH2 0x15D JUMP JUMPDEST STOP JUMPDEST PUSH1 0x1 SLOAD PUSH1 0x1 PUSH1 0x1 PUSH1 0xA0 SHL SUB AND CALLER EQ PUSH1 0x40 MLOAD SWAP1 ISZERO ISZERO DUP2 MSTORE PUSH1 0x20 ADD JUMPDEST PUSH1 0x40 MLOAD DUP1 SWAP2 SUB SWAP1 RETURN JUMPDEST PUSH1 0x1 SLOAD PUSH1 0x1 PUSH1 0x1 PUSH1 0xA0 SHL SUB AND JUMPDEST PUSH1 0x40 MLOAD PUSH1 0x1 PUSH1 0x1 PUSH1 0xA0 SHL SUB SWAP1 SWAP2 AND DUP2 MSTORE PUSH1 0x20 ADD PUSH2 0xC7 JUMP JUMPDEST PUSH2 0xAB PUSH2 0x19C JUMP JUMPDEST PUSH2 0x105 PUSH2 0x210 JUMP JUMPDEST PUSH1 0x40 MLOAD SWAP1 DUP2 MSTORE PUSH1 0x20 ADD PUSH2 0xC7 JUMP JUMPDEST PUSH1 0x0 SLOAD PUSH1 0x1 PUSH1 0x1 PUSH1 0xA0 SHL SUB AND PUSH2 0xDD JUMP JUMPDEST PUSH1 0x2 SLOAD PUSH2 0xDD SWAP1 PUSH1 0x1 PUSH1 0x1 PUSH1 0xA0 SHL SUB AND DUP2 JUMP JUMPDEST PUSH2 0xAB PUSH2 0x145 CALLDATASIZE PUSH1 0x4 PUSH2 0x5E4 JUMP JUMPDEST PUSH2 0x335 JUMP JUMPDEST PUSH2 0xAB PUSH2 0x158 CALLDATASIZE PUSH1 0x4 PUSH2 0x5E4 JUMP JUMPDEST PUSH2 0x41F JUMP JUMPDEST PUSH1 0x0 SLOAD PUSH1 0x1 PUSH1 0x1 PUSH1 0xA0 SHL SUB AND CALLER EQ PUSH2 0x190 JUMPI PUSH1 0x40 MLOAD PUSH3 0x461BCD PUSH1 0xE5 SHL DUP2 MSTORE PUSH1 0x4 ADD PUSH2 0x187 SWAP1 PUSH2 0x67B JUMP JUMPDEST PUSH1 0x40 MLOAD DUP1 SWAP2 SUB SWAP1 REVERT JUMPDEST PUSH2 0x199 DUP2 PUSH2 0x4A7 JUMP JUMPDEST POP JUMP JUMPDEST PUSH1 0x0 SLOAD PUSH1 0x1 PUSH1 0x1 PUSH1 0xA0 SHL SUB AND CALLER EQ PUSH2 0x1C6 JUMPI PUSH1 0x40 MLOAD PUSH3 0x461BCD PUSH1 0xE5 SHL DUP2 MSTORE PUSH1 0x4 ADD PUSH2 0x187 SWAP1 PUSH2 0x67B JUMP JUMPDEST PUSH1 0x0 DUP1 SLOAD PUSH1 0x40 MLOAD PUSH1 0x1 PUSH1 0x1 PUSH1 0xA0 SHL SUB SWAP1 SWAP2 AND SWAP1 PUSH32 0x8BE0079C531659141344CD1FD0A4F28419497F9722A3DAAFE3B4186F6B6457E0 SWAP1 DUP4 SWAP1 LOG3 PUSH1 0x0 DUP1 SLOAD PUSH1 0x1 PUSH1 0x1 PUSH1 0xA0 SHL SUB NOT AND SWAP1 SSTORE JUMP JUMPDEST PUSH1 0x2 SLOAD PUSH1 0x40 DUP1 MLOAD PUSH4 0x3FABE5A3 PUSH1 0xE2 SHL DUP2 MSTORE SWAP1 MLOAD PUSH1 0x0 SWAP3 PUSH1 0x1 PUSH1 0x1 PUSH1 0xA0 SHL SUB AND SWAP2 DUP4 SWAP2 DUP4 SWAP2 PUSH4 0xFEAF968C SWAP2 PUSH1 0x4 DUP1 DUP4 ADD SWAP3 PUSH1 0xA0 SWAP3 SWAP2 SWAP1 DUP3 SWAP1 SUB ADD DUP2 DUP7 DUP1 EXTCODESIZE ISZERO DUP1 ISZERO PUSH2 0x259 JUMPI PUSH1 0x0 DUP1 REVERT JUMPDEST POP GAS STATICCALL ISZERO DUP1 ISZERO PUSH2 0x26D JUMPI RETURNDATASIZE PUSH1 0x0 DUP1 RETURNDATACOPY RETURNDATASIZE PUSH1 0x0 REVERT JUMPDEST POP POP POP POP PUSH1 0x40 MLOAD RETURNDATASIZE PUSH1 0x1F NOT PUSH1 0x1F DUP3 ADD AND DUP3 ADD DUP1 PUSH1 0x40 MSTORE POP DUP2 ADD SWAP1 PUSH2 0x291 SWAP2 SWAP1 PUSH2 0x60B JUMP JUMPDEST POP POP POP SWAP2 POP POP PUSH1 0x0 DUP3 PUSH1 0x1 PUSH1 0x1 PUSH1 0xA0 SHL SUB AND PUSH4 0x313CE567 PUSH1 0x40 MLOAD DUP2 PUSH4 0xFFFFFFFF AND PUSH1 0xE0 SHL DUP2 MSTORE PUSH1 0x4 ADD PUSH1 0x20 PUSH1 0x40 MLOAD DUP1 DUP4 SUB DUP2 DUP7 DUP1 EXTCODESIZE ISZERO DUP1 ISZERO PUSH2 0x2D2 JUMPI PUSH1 0x0 DUP1 REVERT JUMPDEST POP GAS STATICCALL ISZERO DUP1 ISZERO PUSH2 0x2E6 JUMPI RETURNDATASIZE PUSH1 0x0 DUP1 RETURNDATACOPY RETURNDATASIZE PUSH1 0x0 REVERT JUMPDEST POP POP POP POP PUSH1 0x40 MLOAD RETURNDATASIZE PUSH1 0x1F NOT PUSH1 0x1F DUP3 ADD AND DUP3 ADD DUP1 PUSH1 0x40 MSTORE POP DUP2 ADD SWAP1 PUSH2 0x30A SWAP2 SWAP1 PUSH2 0x65A JUMP JUMPDEST SWAP1 POP PUSH2 0x32D PUSH2 0x31A DUP3 PUSH1 0xA PUSH2 0x713 JUMP JUMPDEST PUSH2 0x327 DUP5 PUSH3 0xF4240 PUSH2 0x56B JUMP JUMPDEST SWAP1 PUSH2 0x5B2 JUMP JUMPDEST SWAP4 POP POP POP POP SWAP1 JUMP JUMPDEST PUSH1 0x0 SLOAD PUSH1 0x1 PUSH1 0x1 PUSH1 0xA0 SHL SUB AND CALLER EQ PUSH2 0x35F JUMPI PUSH1 0x40 MLOAD PUSH3 0x461BCD PUSH1 0xE5 SHL DUP2 MSTORE PUSH1 0x4 ADD PUSH2 0x187 SWAP1 PUSH2 0x67B JUMP JUMPDEST PUSH1 0x1 PUSH1 0x1 PUSH1 0xA0 SHL SUB DUP2 AND PUSH2 0x3C4 JUMPI PUSH1 0x40 MLOAD PUSH3 0x461BCD PUSH1 0xE5 SHL DUP2 MSTORE PUSH1 0x20 PUSH1 0x4 DUP3 ADD MSTORE PUSH1 0x26 PUSH1 0x24 DUP3 ADD MSTORE PUSH32 0x4F776E61626C653A206E6577206F776E657220697320746865207A65726F2061 PUSH1 0x44 DUP3 ADD MSTORE PUSH6 0x646472657373 PUSH1 0xD0 SHL PUSH1 0x64 DUP3 ADD MSTORE PUSH1 0x84 ADD PUSH2 0x187 JUMP JUMPDEST PUSH1 0x0 DUP1 SLOAD PUSH1 0x40 MLOAD PUSH1 0x1 PUSH1 0x1 PUSH1 0xA0 SHL SUB DUP1 DUP6 AND SWAP4 SWAP3 AND SWAP2 PUSH32 0x8BE0079C531659141344CD1FD0A4F28419497F9722A3DAAFE3B4186F6B6457E0 SWAP2 LOG3 PUSH1 0x0 DUP1 SLOAD PUSH1 0x1 PUSH1 0x1 PUSH1 0xA0 SHL SUB NOT AND PUSH1 0x1 PUSH1 0x1 PUSH1 0xA0 SHL SUB SWAP3 SWAP1 SWAP3 AND SWAP2 SWAP1 SWAP2 OR SWAP1 SSTORE JUMP JUMPDEST PUSH1 0x1 SLOAD PUSH1 0x1 PUSH1 0x1 PUSH1 0xA0 SHL SUB AND CALLER EQ PUSH2 0x485 JUMPI PUSH1 0x40 MLOAD PUSH3 0x461BCD PUSH1 0xE5 SHL DUP2 MSTORE PUSH1 0x20 PUSH1 0x4 DUP3 ADD MSTORE PUSH1 0x24 DUP1 DUP3 ADD MSTORE PUSH32 0x6F70657261746F723A2063616C6C6572206973206E6F7420746865206F706572 PUSH1 0x44 DUP3 ADD MSTORE PUSH4 0x30BA37B9 PUSH1 0xE1 SHL PUSH1 0x64 DUP3 ADD MSTORE PUSH1 0x84 ADD PUSH2 0x187 JUMP JUMPDEST PUSH1 0x2 DUP1 SLOAD PUSH1 0x1 PUSH1 0x1 PUSH1 0xA0 SHL SUB NOT AND PUSH1 0x1 PUSH1 0x1 PUSH1 0xA0 SHL SUB SWAP3 SWAP1 SWAP3 AND SWAP2 SWAP1 SWAP2 OR SWAP1 SSTORE JUMP JUMPDEST PUSH1 0x1 PUSH1 0x1 PUSH1 0xA0 SHL SUB DUP2 AND PUSH2 0x513 JUMPI PUSH1 0x40 MLOAD PUSH3 0x461BCD PUSH1 0xE5 SHL DUP2 MSTORE PUSH1 0x20 PUSH1 0x4 DUP3 ADD MSTORE PUSH1 0x2D PUSH1 0x24 DUP3 ADD MSTORE PUSH32 0x6F70657261746F723A207A65726F206164647265737320676976656E20666F72 PUSH1 0x44 DUP3 ADD MSTORE PUSH13 0x103732BB9037B832B930BA37B9 PUSH1 0x99 SHL PUSH1 0x64 DUP3 ADD MSTORE PUSH1 0x84 ADD PUSH2 0x187 JUMP JUMPDEST PUSH1 0x40 MLOAD PUSH1 0x1 PUSH1 0x1 PUSH1 0xA0 SHL SUB DUP3 AND SWAP1 PUSH1 0x0 SWAP1 PUSH32 0x74DA04524D50C64947F5DD5381EF1A4DCA5CBA8ED1D816243F9E48AA0B5617ED SWAP1 DUP3 SWAP1 LOG3 PUSH1 0x1 DUP1 SLOAD PUSH1 0x1 PUSH1 0x1 PUSH1 0xA0 SHL SUB NOT AND PUSH1 0x1 PUSH1 0x1 PUSH1 0xA0 SHL SUB SWAP3 SWAP1 SWAP3 AND SWAP2 SWAP1 SWAP2 OR SWAP1 SSTORE JUMP JUMPDEST PUSH1 0x0 DUP3 PUSH2 0x57A JUMPI POP PUSH1 0x0 PUSH2 0x5AC JUMP JUMPDEST PUSH2 0x584 DUP3 DUP5 PUSH2 0x7BE JUMP JUMPDEST SWAP1 POP DUP2 PUSH2 0x591 DUP5 DUP4 PUSH2 0x6B0 JUMP JUMPDEST EQ PUSH2 0x5AC JUMPI PUSH4 0x4E487B71 PUSH1 0xE0 SHL PUSH1 0x0 MSTORE PUSH1 0x1 PUSH1 0x4 MSTORE PUSH1 0x24 PUSH1 0x0 REVERT JUMPDEST SWAP3 SWAP2 POP POP JUMP JUMPDEST PUSH1 0x0 PUSH2 0x5BE DUP3 DUP5 PUSH2 0x6B0 JUMP JUMPDEST SWAP4 SWAP3 POP POP POP JUMP JUMPDEST DUP1 MLOAD PUSH10 0xFFFFFFFFFFFFFFFFFFFF DUP2 AND DUP2 EQ PUSH2 0x5DF JUMPI PUSH1 0x0 DUP1 REVERT JUMPDEST SWAP2 SWAP1 POP JUMP JUMPDEST PUSH1 0x0 PUSH1 0x20 DUP3 DUP5 SUB SLT ISZERO PUSH2 0x5F5 JUMPI DUP1 DUP2 REVERT JUMPDEST DUP2 CALLDATALOAD PUSH1 0x1 PUSH1 0x1 PUSH1 0xA0 SHL SUB DUP2 AND DUP2 EQ PUSH2 0x5BE JUMPI DUP2 DUP3 REVERT JUMPDEST PUSH1 0x0 DUP1 PUSH1 0x0 DUP1 PUSH1 0x0 PUSH1 0xA0 DUP7 DUP9 SUB SLT ISZERO PUSH2 0x622 JUMPI DUP1 DUP2 REVERT JUMPDEST PUSH2 0x62B DUP7 PUSH2 0x5C5 JUMP JUMPDEST SWAP5 POP PUSH1 0x20 DUP7 ADD MLOAD SWAP4 POP PUSH1 0x40 DUP7 ADD MLOAD SWAP3 POP PUSH1 0x60 DUP7 ADD MLOAD SWAP2 POP PUSH2 0x64E PUSH1 0x80 DUP8 ADD PUSH2 0x5C5 JUMP JUMPDEST SWAP1 POP SWAP3 SWAP6 POP SWAP3 SWAP6 SWAP1 SWAP4 POP JUMP JUMPDEST PUSH1 0x0 PUSH1 0x20 DUP3 DUP5 SUB SLT ISZERO PUSH2 0x66B JUMPI DUP1 DUP2 REVERT JUMPDEST DUP2 MLOAD PUSH1 0xFF DUP2 AND DUP2 EQ PUSH2 0x5BE JUMPI DUP2 DUP3 REVERT JUMPDEST PUSH1 0x20 DUP1 DUP3 MSTORE DUP2 DUP2 ADD MSTORE PUSH32 0x4F776E61626C653A2063616C6C6572206973206E6F7420746865206F776E6572 PUSH1 0x40 DUP3 ADD MSTORE PUSH1 0x60 ADD SWAP1 JUMP JUMPDEST PUSH1 0x0 DUP3 PUSH2 0x6CB JUMPI PUSH4 0x4E487B71 PUSH1 0xE0 SHL DUP2 MSTORE PUSH1 0x12 PUSH1 0x4 MSTORE PUSH1 0x24 DUP2 REVERT JUMPDEST POP DIV SWAP1 JUMP JUMPDEST PUSH1 0x1 DUP2 DUP2 JUMPDEST DUP1 DUP6 GT ISZERO PUSH2 0x70B JUMPI DUP2 PUSH1 0x0 NOT DIV DUP3 GT ISZERO PUSH2 0x6F1 JUMPI PUSH2 0x6F1 PUSH2 0x7DD JUMP JUMPDEST DUP1 DUP6 AND ISZERO PUSH2 0x6FE JUMPI SWAP2 DUP2 MUL SWAP2 JUMPDEST SWAP4 DUP5 SHR SWAP4 SWAP1 DUP1 MUL SWAP1 PUSH2 0x6D5 JUMP JUMPDEST POP SWAP3 POP SWAP3 SWAP1 POP JUMP JUMPDEST PUSH1 0x0 PUSH2 0x5BE PUSH1 0xFF DUP5 AND DUP4 PUSH1 0x0 DUP3 PUSH2 0x72C JUMPI POP PUSH1 0x1 PUSH2 0x5AC JUMP JUMPDEST DUP2 PUSH2 0x739 JUMPI POP PUSH1 0x0 PUSH2 0x5AC JUMP JUMPDEST DUP2 PUSH1 0x1 DUP2 EQ PUSH2 0x74F JUMPI PUSH1 0x2 DUP2 EQ PUSH2 0x759 JUMPI PUSH2 0x775 JUMP JUMPDEST PUSH1 0x1 SWAP2 POP POP PUSH2 0x5AC JUMP JUMPDEST PUSH1 0xFF DUP5 GT ISZERO PUSH2 0x76A JUMPI PUSH2 0x76A PUSH2 0x7DD JUMP JUMPDEST POP POP PUSH1 0x1 DUP3 SHL PUSH2 0x5AC JUMP JUMPDEST POP PUSH1 0x20 DUP4 LT PUSH2 0x133 DUP4 LT AND PUSH1 0x4E DUP5 LT PUSH1 0xB DUP5 LT AND OR ISZERO PUSH2 0x798 JUMPI POP DUP2 DUP2 EXP PUSH2 0x5AC JUMP JUMPDEST PUSH2 0x7A2 DUP4 DUP4 PUSH2 0x6D0 JUMP JUMPDEST DUP1 PUSH1 0x0 NOT DIV DUP3 GT ISZERO PUSH2 0x7B6 JUMPI PUSH2 0x7B6 PUSH2 0x7DD JUMP JUMPDEST MUL SWAP4 SWAP3 POP POP POP JUMP JUMPDEST PUSH1 0x0 DUP2 PUSH1 0x0 NOT DIV DUP4 GT DUP3 ISZERO ISZERO AND ISZERO PUSH2 0x7D8 JUMPI PUSH2 0x7D8 PUSH2 0x7DD JUMP JUMPDEST POP MUL SWAP1 JUMP JUMPDEST PUSH4 0x4E487B71 PUSH1 0xE0 SHL PUSH1 0x0 MSTORE PUSH1 0x11 PUSH1 0x4 MSTORE PUSH1 0x24 PUSH1 0x0 REVERT INVALID LOG2 PUSH5 0x6970667358 0x22 SLT KECCAK256 NOT 0xE6 DUP3 CALLDATALOAD DUP3 0xDD 0xB0 CALLDATASIZE 0x2B POP STOP GT PUSH3 0x7D88DA 0xDB LOG4 0xDC ADDRESS PUSH11 0x15496788FCD129A34105CE PUSH5 0x736F6C6343 STOP ADDMOD DIV STOP CALLER "
		},
		"gasEstimates": {
			"creation": {
				"codeDepositCost": "417800",
				"executionCost": "66032",
				"totalCost": "483832"
			},
			"external": {
				"chainlinkMATICUsd()": "1081",
				"consult()": "infinite",
				"isOperator()": "1021",
				"operator()": "1065",
				"owner()": "1053",
				"renounceOwnership()": "24232",
				"setChainlinkMATICUsd(address)": "22064",
				"transferOperator(address)": "23589",
				"transferOwnership(address)": "24431"
			}
		},
		"methodIdentifiers": {
			"chainlinkMATICUsd()": "b21fece7",
			"consult()": "7eeda703",
			"isOperator()": "4456eda2",
			"operator()": "570ca735",
			"owner()": "8da5cb5b",
			"renounceOwnership()": "715018a6",
			"setChainlinkMATICUsd(address)": "ffda0d62",
			"transferOperator(address)": "29605e77",
			"transferOwnership(address)": "f2fde38b"
		}
	},
	"abi": [
		{
			"anonymous": false,
			"inputs": [
				{
					"indexed": true,
					"internalType": "address",
					"name": "previousOperator",
					"type": "address"
				},
				{
					"indexed": true,
					"internalType": "address",
					"name": "newOperator",
					"type": "address"
				}
			],
			"name": "OperatorTransferred",
			"type": "event"
		},
		{
			"anonymous": false,
			"inputs": [
				{
					"indexed": true,
					"internalType": "address",
					"name": "previousOwner",
					"type": "address"
				},
				{
					"indexed": true,
					"internalType": "address",
					"name": "newOwner",
					"type": "address"
				}
			],
			"name": "OwnershipTransferred",
			"type": "event"
		},
		{
			"inputs": [],
			"name": "chainlinkMATICUsd",
			"outputs": [
				{
					"internalType": "address",
					"name": "",
					"type": "address"
				}
			],
			"stateMutability": "view",
			"type": "function"
		},
		{
			"inputs": [],
			"name": "consult",
			"outputs": [
				{
					"internalType": "uint256",
					"name": "",
					"type": "uint256"
				}
			],
			"stateMutability": "view",
			"type": "function"
		},
		{
			"inputs": [],
			"name": "isOperator",
			"outputs": [
				{
					"internalType": "bool",
					"name": "",
					"type": "bool"
				}
			],
			"stateMutability": "view",
			"type": "function"
		},
		{
			"inputs": [],
			"name": "operator",
			"outputs": [
				{
					"internalType": "address",
					"name": "",
					"type": "address"
				}
			],
			"stateMutability": "view",
			"type": "function"
		},
		{
			"inputs": [],
			"name": "owner",
			"outputs": [
				{
					"internalType": "address",
					"name": "",
					"type": "address"
				}
			],
			"stateMutability": "view",
			"type": "function"
		},
		{
			"inputs": [],
			"name": "renounceOwnership",
			"outputs": [],
			"stateMutability": "nonpayable",
			"type": "function"
		},
		{
			"inputs": [
				{
					"internalType": "address",
					"name": "_chainlinkMATICUsd",
					"type": "address"
				}
			],
			"name": "setChainlinkMATICUsd",
			"outputs": [],
			"stateMutability": "nonpayable",
			"type": "function"
		},
		{
			"inputs": [
				{
					"internalType": "address",
					"name": "newOperator_",
					"type": "address"
				}
			],
			"name": "transferOperator",
			"outputs": [],
			"stateMutability": "nonpayable",
			"type": "function"
		},
		{
			"inputs": [
				{
					"internalType": "address",
					"name": "newOwner",
					"type": "address"
				}
			],
			"name": "transferOwnership",
			"outputs": [],
			"stateMutability": "nonpayable",
			"type": "function"
		}
	]
}