{
	"data": {
		"bytecode": {
			"linkReferences": {},
			"object": "608060405234801561001057600080fd5b506040516104be3803806104be83398101604081905261002f916100e3565b600180546001600160a01b0319166001600160a01b0384169081179091556040805163313ce56760e01b8152905163313ce56791600480820192602092909190829003018186803b15801561008357600080fd5b505afa158015610097573d6000803e3d6000fd5b505050506040513d601f19601f820116820180604052508101906100bb919061011b565b6001805460ff92909216600160a01b0260ff60a01b1990921691909117905560005550610143565b600080604083850312156100f5578182fd5b82516001600160a01b038116811461010b578283fd5b6020939093015192949293505050565b60006020828403121561012c578081fd5b815160ff8116811461013c578182fd5b9392505050565b61036c806101526000396000f3fe608060405234801561001057600080fd5b50600436106100415760003560e01c8063313ce56714610046578063741bef1a146100715780637eeda7031461009c575b600080fd5b60015461005a90600160a01b900460ff1681565b60405160ff90911681526020015b60405180910390f35b600154610084906001600160a01b031681565b6040516001600160a01b039091168152602001610068565b6100a46100b2565b604051908152602001610068565b600080600160009054906101000a90046001600160a01b03166001600160a01b031663feaf968c6040518163ffffffff1660e01b815260040160a06040518083038186803b15801561010357600080fd5b505afa158015610117573d6000803e3d6000fd5b505050506040513d601f19601f8201168201806040525081019061013b9190610196565b505060015491935061015a925050600160a01b900460ff16600a610248565b6000546101679083610301565b61017191906101e5565b91505090565b805169ffffffffffffffffffff8116811461019157600080fd5b919050565b600080600080600060a086880312156101ad578081fd5b6101b686610177565b94506020860151935060408601519250606086015191506101d960808701610177565b90509295509295909350565b60008261020057634e487b7160e01b81526012600452602481fd5b500490565b600181815b8085111561024057816000190482111561022657610226610320565b8085161561023357918102915b93841c939080029061020a565b509250929050565b600061025760ff84168361025e565b9392505050565b60008261026d575060016102fb565b8161027a575060006102fb565b8160018114610290576002811461029a576102b6565b60019150506102fb565b60ff8411156102ab576102ab610320565b50506001821b6102fb565b5060208310610133831016604e8410600b84101617156102d9575081810a6102fb565b6102e38383610205565b80600019048211156102f7576102f7610320565b0290505b92915050565b600081600019048311821515161561031b5761031b610320565b500290565b634e487b7160e01b600052601160045260246000fdfea2646970667358221220c86a1780e3e9c0635a26ec56e6172b24bae0a82df2c86b849dcf4855ad9dd21264736f6c63430008040033",
			"opcodes": "PUSH1 0x80 PUSH1 0x40 MSTORE CALLVALUE DUP1 ISZERO PUSH2 0x10 JUMPI PUSH1 0x0 DUP1 REVERT JUMPDEST POP PUSH1 0x40 MLOAD PUSH2 0x4BE CODESIZE SUB DUP1 PUSH2 0x4BE DUP4 CODECOPY DUP2 ADD PUSH1 0x40 DUP2 SWAP1 MSTORE PUSH2 0x2F SWAP2 PUSH2 0xE3 JUMP JUMPDEST PUSH1 0x1 DUP1 SLOAD PUSH1 0x1 PUSH1 0x1 PUSH1 0xA0 SHL SUB NOT AND PUSH1 0x1 PUSH1 0x1 PUSH1 0xA0 SHL SUB DUP5 AND SWAP1 DUP2 OR SWAP1 SWAP2 SSTORE PUSH1 0x40 DUP1 MLOAD PUSH4 0x313CE567 PUSH1 0xE0 SHL DUP2 MSTORE SWAP1 MLOAD PUSH4 0x313CE567 SWAP2 PUSH1 0x4 DUP1 DUP3 ADD SWAP3 PUSH1 0x20 SWAP3 SWAP1 SWAP2 SWAP1 DUP3 SWAP1 SUB ADD DUP2 DUP7 DUP1 EXTCODESIZE ISZERO DUP1 ISZERO PUSH2 0x83 JUMPI PUSH1 0x0 DUP1 REVERT JUMPDEST POP GAS STATICCALL ISZERO DUP1 ISZERO PUSH2 0x97 JUMPI RETURNDATASIZE PUSH1 0x0 DUP1 RETURNDATACOPY RETURNDATASIZE PUSH1 0x0 REVERT JUMPDEST POP POP POP POP PUSH1 0x40 MLOAD RETURNDATASIZE PUSH1 0x1F NOT PUSH1 0x1F DUP3 ADD AND DUP3 ADD DUP1 PUSH1 0x40 MSTORE POP DUP2 ADD SWAP1 PUSH2 0xBB SWAP2 SWAP1 PUSH2 0x11B JUMP JUMPDEST PUSH1 0x1 DUP1 SLOAD PUSH1 0xFF SWAP3 SWAP1 SWAP3 AND PUSH1 0x1 PUSH1 0xA0 SHL MUL PUSH1 0xFF PUSH1 0xA0 SHL NOT SWAP1 SWAP3 AND SWAP2 SWAP1 SWAP2 OR SWAP1 SSTORE PUSH1 0x0 SSTORE POP PUSH2 0x143 JUMP JUMPDEST PUSH1 0x0 DUP1 PUSH1 0x40 DUP4 DUP6 SUB SLT ISZERO PUSH2 0xF5 JUMPI DUP2 DUP3 REVERT JUMPDEST DUP3 MLOAD PUSH1 0x1 PUSH1 0x1 PUSH1 0xA0 SHL SUB DUP2 AND DUP2 EQ PUSH2 0x10B JUMPI DUP3 DUP4 REVERT JUMPDEST PUSH1 0x20 SWAP4 SWAP1 SWAP4 ADD MLOAD SWAP3 SWAP5 SWAP3 SWAP4 POP POP POP JUMP JUMPDEST PUSH1 0x0 PUSH1 0x20 DUP3 DUP5 SUB SLT ISZERO PUSH2 0x12C JUMPI DUP1 DUP2 REVERT JUMPDEST DUP2 MLOAD PUSH1 0xFF DUP2 AND DUP2 EQ PUSH2 0x13C JUMPI DUP2 DUP3 REVERT JUMPDEST SWAP4 SWAP3 POP POP POP JUMP JUMPDEST PUSH2 0x36C DUP1 PUSH2 0x152 PUSH1 0x0 CODECOPY PUSH1 0x0 RETURN INVALID PUSH1 0x80 PUSH1 0x40 MSTORE CALLVALUE DUP1 ISZERO PUSH2 0x10 JUMPI PUSH1 0x0 DUP1 REVERT JUMPDEST POP PUSH1 0x4 CALLDATASIZE LT PUSH2 0x41 JUMPI PUSH1 0x0 CALLDATALOAD PUSH1 0xE0 SHR DUP1 PUSH4 0x313CE567 EQ PUSH2 0x46 JUMPI DUP1 PUSH4 0x741BEF1A EQ PUSH2 0x71 JUMPI DUP1 PUSH4 0x7EEDA703 EQ PUSH2 0x9C JUMPI JUMPDEST PUSH1 0x0 DUP1 REVERT JUMPDEST PUSH1 0x1 SLOAD PUSH2 0x5A SWAP1 PUSH1 0x1 PUSH1 0xA0 SHL SWAP1 DIV PUSH1 0xFF AND DUP2 JUMP JUMPDEST PUSH1 0x40 MLOAD PUSH1 0xFF SWAP1 SWAP2 AND DUP2 MSTORE PUSH1 0x20 ADD JUMPDEST PUSH1 0x40 MLOAD DUP1 SWAP2 SUB SWAP1 RETURN JUMPDEST PUSH1 0x1 SLOAD PUSH2 0x84 SWAP1 PUSH1 0x1 PUSH1 0x1 PUSH1 0xA0 SHL SUB AND DUP2 JUMP JUMPDEST PUSH1 0x40 MLOAD PUSH1 0x1 PUSH1 0x1 PUSH1 0xA0 SHL SUB SWAP1 SWAP2 AND DUP2 MSTORE PUSH1 0x20 ADD PUSH2 0x68 JUMP JUMPDEST PUSH2 0xA4 PUSH2 0xB2 JUMP JUMPDEST PUSH1 0x40 MLOAD SWAP1 DUP2 MSTORE PUSH1 0x20 ADD PUSH2 0x68 JUMP JUMPDEST PUSH1 0x0 DUP1 PUSH1 0x1 PUSH1 0x0 SWAP1 SLOAD SWAP1 PUSH2 0x100 EXP SWAP1 DIV PUSH1 0x1 PUSH1 0x1 PUSH1 0xA0 SHL SUB AND PUSH1 0x1 PUSH1 0x1 PUSH1 0xA0 SHL SUB AND PUSH4 0xFEAF968C PUSH1 0x40 MLOAD DUP2 PUSH4 0xFFFFFFFF AND PUSH1 0xE0 SHL DUP2 MSTORE PUSH1 0x4 ADD PUSH1 0xA0 PUSH1 0x40 MLOAD DUP1 DUP4 SUB DUP2 DUP7 DUP1 EXTCODESIZE ISZERO DUP1 ISZERO PUSH2 0x103 JUMPI PUSH1 0x0 DUP1 REVERT JUMPDEST POP GAS STATICCALL ISZERO DUP1 ISZERO PUSH2 0x117 JUMPI RETURNDATASIZE PUSH1 0x0 DUP1 RETURNDATACOPY RETURNDATASIZE PUSH1 0x0 REVERT JUMPDEST POP POP POP POP PUSH1 0x40 MLOAD RETURNDATASIZE PUSH1 0x1F NOT PUSH1 0x1F DUP3 ADD AND DUP3 ADD DUP1 PUSH1 0x40 MSTORE POP DUP2 ADD SWAP1 PUSH2 0x13B SWAP2 SWAP1 PUSH2 0x196 JUMP JUMPDEST POP POP PUSH1 0x1 SLOAD SWAP2 SWAP4 POP PUSH2 0x15A SWAP3 POP POP PUSH1 0x1 PUSH1 0xA0 SHL SWAP1 DIV PUSH1 0xFF AND PUSH1 0xA PUSH2 0x248 JUMP JUMPDEST PUSH1 0x0 SLOAD PUSH2 0x167 SWAP1 DUP4 PUSH2 0x301 JUMP JUMPDEST PUSH2 0x171 SWAP2 SWAP1 PUSH2 0x1E5 JUMP JUMPDEST SWAP2 POP POP SWAP1 JUMP JUMPDEST DUP1 MLOAD PUSH10 0xFFFFFFFFFFFFFFFFFFFF DUP2 AND DUP2 EQ PUSH2 0x191 JUMPI PUSH1 0x0 DUP1 REVERT JUMPDEST SWAP2 SWAP1 POP JUMP JUMPDEST PUSH1 0x0 DUP1 PUSH1 0x0 DUP1 PUSH1 0x0 PUSH1 0xA0 DUP7 DUP9 SUB SLT ISZERO PUSH2 0x1AD JUMPI DUP1 DUP2 REVERT JUMPDEST PUSH2 0x1B6 DUP7 PUSH2 0x177 JUMP JUMPDEST SWAP5 POP PUSH1 0x20 DUP7 ADD MLOAD SWAP4 POP PUSH1 0x40 DUP7 ADD MLOAD SWAP3 POP PUSH1 0x60 DUP7 ADD MLOAD SWAP2 POP PUSH2 0x1D9 PUSH1 0x80 DUP8 ADD PUSH2 0x177 JUMP JUMPDEST SWAP1 POP SWAP3 SWAP6 POP SWAP3 SWAP6 SWAP1 SWAP4 POP JUMP JUMPDEST PUSH1 0x0 DUP3 PUSH2 0x200 JUMPI PUSH4 0x4E487B71 PUSH1 0xE0 SHL DUP2 MSTORE PUSH1 0x12 PUSH1 0x4 MSTORE PUSH1 0x24 DUP2 REVERT JUMPDEST POP DIV SWAP1 JUMP JUMPDEST PUSH1 0x1 DUP2 DUP2 JUMPDEST DUP1 DUP6 GT ISZERO PUSH2 0x240 JUMPI DUP2 PUSH1 0x0 NOT DIV DUP3 GT ISZERO PUSH2 0x226 JUMPI PUSH2 0x226 PUSH2 0x320 JUMP JUMPDEST DUP1 DUP6 AND ISZERO PUSH2 0x233 JUMPI SWAP2 DUP2 MUL SWAP2 JUMPDEST SWAP4 DUP5 SHR SWAP4 SWAP1 DUP1 MUL SWAP1 PUSH2 0x20A JUMP JUMPDEST POP SWAP3 POP SWAP3 SWAP1 POP JUMP JUMPDEST PUSH1 0x0 PUSH2 0x257 PUSH1 0xFF DUP5 AND DUP4 PUSH2 0x25E JUMP JUMPDEST SWAP4 SWAP3 POP POP POP JUMP JUMPDEST PUSH1 0x0 DUP3 PUSH2 0x26D JUMPI POP PUSH1 0x1 PUSH2 0x2FB JUMP JUMPDEST DUP2 PUSH2 0x27A JUMPI POP PUSH1 0x0 PUSH2 0x2FB JUMP JUMPDEST DUP2 PUSH1 0x1 DUP2 EQ PUSH2 0x290 JUMPI PUSH1 0x2 DUP2 EQ PUSH2 0x29A JUMPI PUSH2 0x2B6 JUMP JUMPDEST PUSH1 0x1 SWAP2 POP POP PUSH2 0x2FB JUMP JUMPDEST PUSH1 0xFF DUP5 GT ISZERO PUSH2 0x2AB JUMPI PUSH2 0x2AB PUSH2 0x320 JUMP JUMPDEST POP POP PUSH1 0x1 DUP3 SHL PUSH2 0x2FB JUMP JUMPDEST POP PUSH1 0x20 DUP4 LT PUSH2 0x133 DUP4 LT AND PUSH1 0x4E DUP5 LT PUSH1 0xB DUP5 LT AND OR ISZERO PUSH2 0x2D9 JUMPI POP DUP2 DUP2 EXP PUSH2 0x2FB JUMP JUMPDEST PUSH2 0x2E3 DUP4 DUP4 PUSH2 0x205 JUMP JUMPDEST DUP1 PUSH1 0x0 NOT DIV DUP3 GT ISZERO PUSH2 0x2F7 JUMPI PUSH2 0x2F7 PUSH2 0x320 JUMP JUMPDEST MUL SWAP1 POP JUMPDEST SWAP3 SWAP2 POP POP JUMP JUMPDEST PUSH1 0x0 DUP2 PUSH1 0x0 NOT DIV DUP4 GT DUP3 ISZERO ISZERO AND ISZERO PUSH2 0x31B JUMPI PUSH2 0x31B PUSH2 0x320 JUMP JUMPDEST POP MUL SWAP1 JUMP JUMPDEST PUSH4 0x4E487B71 PUSH1 0xE0 SHL PUSH1 0x0 MSTORE PUSH1 0x11 PUSH1 0x4 MSTORE PUSH1 0x24 PUSH1 0x0 REVERT INVALID LOG2 PUSH5 0x6970667358 0x22 SLT KECCAK256 0xC8 PUSH11 0x1780E3E9C0635A26EC56E6 OR 0x2B 0x24 0xBA 0xE0 0xA8 0x2D CALLCODE 0xC8 PUSH12 0x849DCF4855AD9DD21264736F PUSH13 0x63430008040033000000000000 "
		},
		"gasEstimates": {
			"creation": {
				"codeDepositCost": "175200",
				"executionCost": "infinite",
				"totalCost": "infinite"
			},
			"external": {
				"consult()": "infinite",
				"decimals()": "997",
				"priceFeed()": "1037"
			}
		},
		"methodIdentifiers": {
			"consult()": "7eeda703",
			"decimals()": "313ce567",
			"priceFeed()": "741bef1a"
		}
	},
	"abi": [
		{
			"inputs": [
				{
					"internalType": "address",
					"name": "_chainlinkWcoinUsd",
					"type": "address"
				},
				{
					"internalType": "uint256",
					"name": "_pricePrescion",
					"type": "uint256"
				}
			],
			"stateMutability": "nonpayable",
			"type": "constructor"
		},
		{
			"inputs": [],
			"name": "consult",
			"outputs": [
				{
					"internalType": "uint256",
					"name": "",
					"type": "uint256"
				}
			],
			"stateMutability": "view",
			"type": "function"
		},
		{
			"inputs": [],
			"name": "decimals",
			"outputs": [
				{
					"internalType": "uint8",
					"name": "",
					"type": "uint8"
				}
			],
			"stateMutability": "view",
			"type": "function"
		},
		{
			"inputs": [],
			"name": "priceFeed",
			"outputs": [
				{
					"internalType": "contract AggregatorV3Interface",
					"name": "",
					"type": "address"
				}
			],
			"stateMutability": "view",
			"type": "function"
		}
	]
}